:100000000C947A360C94AB360C94AB360C94AB361D
:100010000C94AB360C946F720C94AB360C94AB36DC
:100020000C94F4710C94AB360C94AB360C94F7DB57
:100030000C94AB360D9488D00C94AB360C94AB3644
:100040000C94AB360D94A10F0C94AB360C94AB36DC
:100050000C94AB360C94AB360D941F300D94B9C88C
:100060000C94AB360C9400450C94AB360C94AB3628
:100070000C94AB360C94AB360C94AB360C94AB367C
:100080000C94AB360C94AB360C94AB360C94AB366C
:100090000C9444450C94AB360C94AB360C94AB36B4
:1000A0000C94AB360C94AB360C94AB360C94AB364C
:1000B0000C94AB360C94AB360C94AB360C94AB363C
:1000C0000C94AB360C94AB360C94AB360C94AB362C
:1000D0000C94AB360C94AB360C94AB360C94AB361C
:1000E0000C94AB36034407440C4414442944424462
:1000F00067449144F2012C01B8018801700160014C
:10010000DA015A019C01D0010002F401FA017201E6
:10011000A60102026401A401460186018201CC010C
:10012000C8017C0144013C013C013C01B201B20127
:10013000B2015001C601B201E8018C012A0192010D
:10014000E201620138017A018A014201AE016C01CB
:10015000AC01CA010A023801C00136019A01060247
:100160009401FC01C201BA0190013401CE014A019F
:10017000D60140015601C40132019001A201B6012D
:100180000802084AD73B3BCE016E84BCBFFDC12F9D
:100190003D6C74319ABD56833DDA3D00C77F11BE78
:1001A000D9E4BB4C3E916BAAAABE000000803F057B
:1001B000A84CCDB2D44EB93836A9020C50B99186AC
:1001C00088083CA6AAAA2ABE000000803F07634216
:1001D00036B79BD8A71A39685618AEBAAB558C1DDE
:1001E0003CB7CC5763BD6DEDFD753EF6177231BF60
:1001F000000000803F08000000BE922449123EAB80
:10020000AAAA2ABECDCCCC4C3E00000080BEABAA30
:10021000AAAA3E00000000BF000000803F000000CE
:100220000000084178D3BB4387D1133D190E3CC36E
:10023000BD4282AD2B3E68EC8276BED98FE1A93EED
:100240004C80EFFFBE01C4FF7F3F000000000000B4
:100250000D9475430D94FFC90D944E750D949C44F7
:100260000D948D440D94DACA0D94BACA0D947DCACA
:100270000D9491CA0D9463640D9450840D94D4A888
:100280000D94CCCA0D9432CA0D9448840D94A88361
:100290000D947A6F0D94C4CA0D9449BD0D945053BA
:1002A0000D9458840D9422530D94D6670D94D2CAA0
:1002B0000D94FE670D94C0750D94677C0D94905B52
:1002C0000D949B750D9418CA0D94C3820D948EAC39
:1002D0000D94CD640D9469710D9446CA0D944864D3
:1002E0000D9496750D9469820D94A2440D940E4B55
:1002F0000D94DD900D9422CA0D9440840D94F94123
:100300000D949B7B0D94DD830D94F5A10D94CC830E
:100310000D946F750D942ACA0D94FAC90D94CDBD34
:100320000D94EDCA0D9404CA0D94B6CA0D949C5355
:100330000D944C980D9487CA0D94D6750D94F24087
:100340000D9451640D94E0CA0D94E0820D947F8267
:100350000D9408460D944F520D9450CA0D943CCA0A
:100360000D94519A0D9476840D94EBB40D94E4CAD7
:100370000D9453750D94AFCA0D94949A0D944569DC
:100380000D9473CA0D94A9CA0D94D6CA0D9486848F
:100390000D9418840D945FCA0D94FA830D94BECA0F
:1003A0000D94F1750D9443BD0D94047B0D94C8CA52
:1003B0000D945A640D94A5750D9401610D942FA4AC
:1003C0000D94126F0D940ECA0D94D46E0D94BD52FF
:1003D0000D9462840D94BB580D94A3660D94A73FB1
:1003E0000D944DBD0D9438750D943A820D94689915
:1003F0000D9477650D9452820D94A5CA0D9484CB0B
:100400000D941B760D9494820D949D620D94B3CA45
:100410000D94E8CA0D9469CA48617264636F64659B
:10042000642044656661756C742053657474696EEC
:100430006773204C6F616465640053746F72656408
:100440002073657474696E67732072657472696570
:1004500076656400202020452F44203D2000202088
:10046000204D393030204B004C696E65617220613F
:100470006476616E63652073657474696E67733A40
:100480000046696C616D656E742073657474696E85
:1004900067733A2044697361626C656400202020B0
:1004A0004D32303020440046696C616D656E7420B9
:1004B00073657474696E67733A002020204D323082
:1004C000392053004175746F2D52657472616374E5
:1004D0003A20533D3020746F2064697361626C650B
:1004E0002C203120746F20696E746572707265748F
:1004F00020657874727564652D6F6E6C79206D6FF0
:100500007665732061732072657472616374732001
:100510006F72207265636F7665726965730020463D
:10052000002020204D3230382053005265636F7612
:1005300065723A20533D4578747261206C656E6730
:10054000746820286D6D2920463A537065656420D3
:10055000286D6D2F6D2900205A0020460020202094
:100560004D323037205300526574726163743A2003
:10057000533D4C656E67746820286D6D2920463A9E
:10058000537065656420286D6D2F6D29205A3A20BF
:100590005A4C69667420286D6D290020440020495A
:1005A000002020204D333034205000504944206832
:1005B0006561746265642073657474696E67733A0B
:1005C000002044002049002020204D3330312050AD
:1005D000005049442073657474696E67733A002053
:1005E0005A0020590020204D323036205800486FE4
:1005F0006D65206F666673657420286D6D293A00FD
:10060000204500205A002059002058002042002098
:10061000540020204D323035205300416476616E05
:10062000636564207661726961626C65733A205318
:100630003D4D696E20666565647261746520286D44
:100640006D2F73292C20543D4D696E207472617694
:10065000656C20666565647261746520286D6D2F18
:1006600073292C20423D6D696E696D756D2073652F
:10067000676D656E742074696D6520286D73292C13
:1006800020583D6D6178696D756D205859206A65F7
:10069000726B20286D6D2F73292C20205A3D6D61BF
:1006A00078696D756D205A206A65726B20286D6DB2
:1006B0002F73292C2020453D6D6178696D756D2063
:1006C00045206A65726B20286D6D2F7329002054B8
:1006D0000020204D323034205300416363656C6547
:1006E000726174696F6E3A20533D616363656C6536
:1006F000726174696F6E2C20543D7265747261630F
:100700007420616363656C65726174696F6E00204B
:100710004500205A0020590020204D323031205809
:10072000004D6178696D756D20416363656C65721C
:100730006174696F6E20286D6D2F7332293A002025
:100740004500205A0020590020204D3230332058D7
:10075000004D6178696D756D2066656564726174C0
:10076000657320286D6D2F73293A00204500205AAB
:100770000020590020204D393220580053746570F4
:10078000732070657220756E69743A0053657474D5
:10079000696E67732053746F7265640045455052EB
:1007A0004F4D204572726F720029002C20002C20C2
:1007B00000706879736963616C20636F6F7264693C
:1007C0006E617465733A20280029002C20002C20CB
:1007D00000776F726C6420636F6F7264696E61740E
:1007E00065733A2028006F6B0A0020460020450000
:1007F0004731205A004D3234004D32362053256C9B
:1008000075004D3130362053004D383200473120CD
:100810004625640047312045322A3120463438309D
:10082000004731205A002046323030300020590035
:1008300047312058004D383300506F736974696F29
:100840006E20726561642066726F6D2065657072DE
:100850006F6D3A004D3233202573002E67636F00B1
:1008600046656564726174653A007265636F7665AA
:10087000725F6D616368696E655F73746174655FF3
:1008800061667465725F706F7765725F70616E69C3
:10089000632C20696E697469616C20007265636FF6
:1008A0007665725F6D616368696E655F73746174AC
:1008B000655F61667465725F706F7765725F7061A6
:1008C0006E69632C20696E697469616C2000473918
:1008D0003220450063757272656E745F706F736964
:1008E00074696F6E5B455F415849535D3A006375AB
:1008F0007272656E745F706F736974696F6E5B5A44
:100900005F415849535D3A0043757272656E7420B9
:10091000706F736974696F6E20595F415849533A1B
:100920000043757272656E7420706F736974696FBD
:100930006E20585F415849533A00416674657220F1
:1009400077616974696E6720666F722074656D7077
:100950003A00473120452D312046343830004731A8
:100960002045352046313230004D3833004D313985
:100970003020532564004D31303920532564004721
:10098000323820582059004731205A323520463815
:100990003030004D31343020532564004D31303437
:1009A0002053256400494E54340055564C4F202D99
:1009B00020656E6400737470730020423A00204515
:1009C0003A00543A005A206C6976652061646A7571
:1009D0007374206F7574206F662072616E67652E68
:1009E0002053657474696E6720746F20302E204325
:1009F0006C69636B20746F20636F6E74696E7565CC
:100A00002E005A206C6976652061646A75737420C3
:100A10006F7574206F662072616E67652E20536556
:100A20007474696E6720746F20300020573A00207C
:100A3000453A00543A004B494C4C3A20004D37306F
:100A400031004175746F0020452F443D00416476AC
:100A5000616E6365204B3D00222832290054004915
:100A60006E76616C6964205420636F64652E005556
:100A70006E6B6E6F776E204D20636F64653A202534
:100A800073200A006E6F2076616C696420636F6D5D
:100A90006D616E64002C20002C20002C20006E2F35
:100AA00061002C20002C20002C20006E2F61002FD4
:100AB00000503A005761697420666F722050494EA9
:100AC0004441207461726765742074656D7065724D
:100AD00061747572653A004D3232302053256900D9
:100AE000203A2000004C414E472053454C20464FB1
:100AF0005243454400222831290030303030303014
:100B000030302D303030302D303030302D303030EE
:100B1000302D303030303030303030303030002018
:100B2000555549443A0031002045585452554445E2
:100B3000525F434F554E543A005A617269626F20BA
:100B4000333230204D4B3300204D414348494E4510
:100B50005F545950453A00312E3000206261736570
:100B600064206F6E204D61726C696E204649524D53
:100B7000574152455F55524C3A68747470733A2F1E
:100B80002F6769746875622E636F6D2F707275734D
:100B90006133642F50727573612D4669726D776190
:100BA00072652050524F544F434F4C5F564552533D
:100BB000494F4E3A004649524D574152455F4E41CA
:100BC0004D453A50727573612D4669726D77617249
:100BD0006520004D31313320530020002E0020428B
:100BE0003A0020453A00543A0020413A0020503A59
:100BF000002042403A0020403A00202F003A0020D6
:100C00005400202F0020423A00202F006F6B205408
:100C10003A002569206D696E2C2025692073656373
:100C200000496E76616C6964204D20636F64653A9B
:100C3000202573200A00556E6B6E6F776E2047205B
:100C4000636F64653A202573200A004D6573682040
:100C5000626564206C6576656C696E67206E6F7482
:100C6000206163746976652E000A002020000A4D19
:100C70006561737572656420706F696E74733A0094
:100C80000A5A2073656172636820686569676874D1
:100C90003A20002C004E756D20582C593A20002027
:100CA0006D6963726F6E73004578636573736976FF
:100CB0006520626564206C6576656C696E6720638B
:100CC0006F7272656374696F6E3A20004732382024
:100CD0005730003A200000205A207368696674205B
:100CE000286D6D293A0050494E44412074656D705D
:100CF000657261747572653A2000002F3600537476
:100D000065703A200000205A2073686966742028B4
:100D10006D6D293A0050494E44412074656D7065EF
:100D20007261747572653A20002F362028736B69E2
:100D3000707065642900537465703A2000005A454C
:100D4000524F3A20000073746172742074656D70A4
:100D5000657261747572653A200050494E444120B5
:100D600070726F62652063616C6962726174696F31
:100D70006E20737461727400473238205730000A55
:100D800000205A3A200020593A200020583A2000EA
:100D90005345545F535445505F45005345545F5786
:100DA0004156455F4500544D435F0043524153480F
:100DB0005F0020453A00205A3A0020593A00204569
:100DC0003A00205A3A0020593A00583A0043616CE0
:100DD0006962726174696F6E206661696C65642115
:100DE00020436865636B20746865206178657320B3
:100DF000616E642072756E20616761696E2E0025D8
:100E0000336420737465703D253264206D73636EA6
:100E1000743D2534640A0043524153485F444554AD
:100E2000454354454458590043524153485F444553
:100E3000544543544544590043524153485F444547
:100E400054454354454458004D3239006275737916
:100E50003A2070617573656420666F7220696E70E8
:100E6000757400627573793A2070617573656420DA
:100E7000666F72207573657200627573793A2070BF
:100E8000726F63657373696E67002055706C6F6174
:100E90006420696E2070726F6772657373004449D5
:100EA0005341424C45440A00454E41424C45440A98
:100EB000004653656E736F722000504154393132D1
:100EC000355F696E69743A25640A004D6179203195
:100ED00039203230313800436F6D70696C65643A87
:100EE0002000286E6F6E652C2064656661756C74D9
:100EF00020636F6E66696729004D61792031392062
:100F0000323031382032323A34303A333200203302
:100F10002E322E312D3537360A007374617274000B
:100F2000466163746F7279205245534554001B5BD0
:100F3000324A1B5B313B31485A617269626F205201
:100F4000657365617263681B5B323B3348616E6435
:100F500020446576656C6F706D656E7400250020A9
:100F60002020202020002020202020200045524149
:100F700053494E4720616C6C206461746100466186
:100F800063746F7279205245534554004352415364
:100F9000485F5245434F564552004732382058204B
:100FA0005900FFFFFF0000A0400000A0400000002B
:100FB0004000007F4300805843CDEC9F4300000079
:100FC00000000080C09A99193E00007F43008054C1
:100FD000430000A04300000000000080C09A99195F
:100FE0003E6563686F3A004572726F723A000000A6
:100FF0002110422063308440A550C660E77008810C
:1010000029914AA16BB18CC1ADD1CEE1EFF1311282
:10101000100273325222B5529442F772D66239935B
:1010200018837BB35AA3BDD39CC3FFF3DEE36224D2
:10103000433420040114E664C774A44485546AA5AB
:101040004BB528850995EEE5CFF5ACC58DD5533662
:10105000722611163006D776F6669556B4465BB7FB
:101060007AA719973887DFF7FEE79DD7BCC7C44832
:10107000E5588668A7784008611802282338CCC94B
:10108000EDD98EE9AFF9488969990AA92BB9F55AC2
:10109000D44AB77A966A711A500A333A122AFDDB9B
:1010A000DCCBBFFB9EEB799B588B3BBB1AABA66C92
:1010B000877CE44CC55C222C033C600C411CAEEDEB
:1010C0008FFDECCDCDDD2AAD0BBD688D499D977EA2
:1010D000B66ED55EF44E133E322E511E700E9FFF3B
:1010E000BEEFDDDFFCCF1BBF3AAF599F788F8891F1
:1010F000A981CAB1EBA10CD12DC14EF16FE18010D5
:10110000A100C230E3200450254046706760B983D7
:101110009893FBA3DAB33DC31CD37FE35EF3B10224
:101120009012F322D2323542145277625672EAB5E7
:10113000CBA5A89589856EF54FE52CD50DC5E23474
:10114000C324A01481046674476424540544DBA7B7
:10115000FAB79987B8975FE77EF71DC73CD7D326C4
:10116000F2369106B01657667676154634564CD947
:101170006DC90EF92FE9C899E9898AB9ABA9445814
:10118000654806782768C018E1088238A3287DCB17
:101190005CDB3FEB1EFBF98BD89BBBAB9ABB754A64
:1011A000545A376A167AF10AD01AB32A923A2EFDA7
:1011B0000FED6CDD4DCDAABD8BADE89DC98D267CB4
:1011C000076C645C454CA23C832CE01CC10C1FEFF7
:1011D0003EFF5DCF7CDF9BAFBABFD98FF89F176E04
:1011E000367E554E745E932EB23ED10EF01E7C3C80
:1011F0003E5E2B3D3F2F5B5D3B2C2A225C004D3237
:1012000034004D3233202573006175746F25692ECB
:1012100067004E6F74205344207072696E74696E5B
:1012200067000A002F000A002E0044656C6574698F
:101230006F6E206661696C65642C2046696C653A46
:10124000200046696C652064656C657465643A00CD
:101250002E002E002E002E004E6F772066726573D2
:10126000682066696C653A20004E6F7720646F696C
:101270006E672066696C653A20002220706F7300EB
:101280002220706172656E743A2200535542524FAB
:101290005554494E452043414C4C2074617267655A
:1012A000743A2200747279696E6720746F206361EA
:1012B0006C6C207375622D67636F64652066696C62
:1012C0006573207769746820746F6F206D616E7923
:1012D000206C6576656C732E204D4158206C6576C8
:1012E000656C2069733A00256920686F75727320F8
:1012F0002569206D696E757465730054494D454FBD
:1013000055543A004D3131300046756C6C205258BE
:10131000204275666665720022206661696C6564AC
:101320003A204275666665722066756C6C210045D0
:101330006E717565696E6720746F207468652066CC
:10134000726F6E743A2022002200456E71756569D5
:101350006E6720746F207468652066726F6E743AD1
:1013600020220022206661696C65643A204275661D
:101370006665722066756C6C210022004D36303037
:101380000047312045332046323030004731204578
:101390002D332046323030007061743931323520BF
:1013A0006E6F7420726573706F6E64696E6720284B
:1013B00031292E0A0070617439313235206E6F7414
:1013C00020726573706F6E64696E67202832292EF3
:1013D0000A0070617439313235206E6F7420726585
:1013E00073706F6E64696E67202833292E0A00506F
:1013F0004154393132355F696E69743A25640A00A7
:101400005A617269626F20333230204D4B33206F46
:101410006B005A617269626F20333230204D4B335A
:101420002072656164792E007A5F6D696E3A2000E2
:101430007A5F6D61783A20005A204F666673657452
:1014400000795F6D696E3A2000795F6D61783A20AE
:10145000005920767A64616C656E6F7374206F64D6
:10146000206D696E3A00592064697374616E63651A
:101470002066726F6D206D696E3A00416E6F005983
:10148000657300785F6D696E3A2000785F6D6178F2
:101490003A200044657461696C792058595A206B70
:1014A000616C2E0058595A2063616C2E206465745B
:1014B00061696C73004E796E692070726F76656435
:1014C00075207A206B616C6962726163692E0049D4
:1014D0002077696C6C2072756E207A2063616C696C
:1014E00062726174696F6E206E6F772E004E796E36
:1014F000692070726F766564752078797A206B61E7
:101500006C6962726163692E205A6162657265203E
:10151000746F20707269626C697A6E652031322056
:101520006D696E2E00492077696C6C2072756E2093
:1015300078797A2063616C6962726174696F6E2078
:101540006E6F772E2049742077696C6C2074616B04
:101550006520617070726F782E203132206D696E57
:10156000732E004E796E69207072656465687265CD
:101570006A6920747279736B752070726F20504C99
:10158000412E004E6F7720492077696C6C20707275
:101590006568656174206E6F7A7A6C6520666F721B
:1015A00020504C412E00446F6272792064656E2C8D
:1015B000206A73656D2076617365207469736B6151
:1015C000726E61204F726967696E616C205072752E
:1015D00073612069332E20436863657465206162FE
:1015E000796368205661732070726F7665646C61F0
:1015F000206B616C69627261636E696D2070726FDD
:10160000636573656D3F0048692C204920616D203A
:10161000796F7572204F726967696E616C205072C4
:10162000757361206933207072696E7465722E2043
:10163000576F756C6420796F75206C696B65206DD0
:101640006520746F20677569646520796F752074F3
:1016500068726F756768207468652073657475704B
:101660002070726F636573733F005A61636E7520FB
:101670007469736B6E6F7574206C696E6B75206125
:101680002056792062756465746520706F73747577
:10169000706E6520736E697A6F76617420747279EA
:1016A000736B75206F746163656E696D20746C6116
:1016B0006369746B6120646F6B7564206E65646F21
:1016C0007361686E657465206F7074696D616C6EAE
:1016D00069207679736B792E2050726F686C65641F
:1016E0006E657465207369206F6272617A6B792010
:1016F00076206E617369207072697275636365200C
:1017000076206B617069746F6C65204B616C6962E7
:101710007261636500492077696C6C207374617233
:101720007420746F207072696E74206C696E65200D
:10173000616E6420796F752077696C6C20677261C7
:101740006475616C6C79206C6F7765722074686564
:10175000206E6F7A7A6C6520627920726F74617482
:10176000696E6720746865206B6E6F622C20756EE1
:1017700074696C20796F75207265616368206F7081
:1017800074696D616C206865696768742E204368B0
:1017900065636B2074686520706963747572657326
:1017A00020696E206F75722068616E64626F6F6B66
:1017B00020696E20636861707465722043616C6992
:1017C00062726174696F6E2E004E796E69207A6B59
:1017D000616C696272756A6920767A64616C656EA3
:1017E0006F7374206D657A69206B6F6E63656D2011
:1017F000747279736B79206120706F76726368659B
:101800006D2068656174626564752E004E6F772087
:10181000492077696C6C2063616C696272617465E0
:101820002064697374616E636520626574776565B1
:101830006E20746970206F6620746865206E6F7A00
:101840007A6C6520616E64206865617462656420ED
:10185000737572666163652E004E656A647269769F
:1018600020706F6D6F63692073656C667465737447
:1018700075207A6B6F6E746F6C756A69206E656A1D
:1018800063617374656A736920636879627920762D
:101890007A6E696B616A6963692070726920736529
:1018A00073746176656E69207469736B61726E79A9
:1018B0002E0046697273742C20492077696C6C2065
:1018C00072756E207468652073656C6674657374D8
:1018D00020746F20636865636B206D6F7374206381
:1018E0006F6D6D6F6E20617373656D626C792070C2
:1018F000726F626C656D732E005370757374656ED4
:10190000692057697A617264612076796D617A65C0
:1019100020756C6F7A656E65207679736C65646B83
:1019200079207673656368206B616C6962726163AC
:1019300069206120737075737469206B616C6962D2
:101940007261636E692070726F636573206F6420CB
:101950007A616361746B752E20506F6B7261636F77
:101960007661743F0052756E6E696E672057697AB2
:101970006172642077696C6C2064656C65746520A5
:1019800063757272656E742063616C6962726174F2
:10199000696F6E20726573756C747320616E64205C
:1019A00073746172742066726F6D20746865206252
:1019B0006567696E6E696E672E20436F6E74696E1F
:1019C00075653F00436863657465206F70616B6F78
:1019D00076617420706F736C65646E69206B726FD2
:1019E0006B206120706F7A6D656E697420767A6401
:1019F000616C656E6F7374206D657A69207472799D
:101A0000736B6F75206120686561746265643F0067
:101A1000446F20796F752077616E7420746F207227
:101A20006570656174206C617374207374657020D7
:101A3000746F20726561646A75737420646973746D
:101A4000616E6365206265747765656E206E6F7A7E
:101A50007A6C6520616E6420686561746265643FBC
:101A60000057697A61726461206D757A65746520CA
:101A70006B64796B6F6C6976207A6E6F7675207304
:101A8000707573746974207A206D656E752043617A
:101A90006C6962726174696F6E202D3E2057697A9D
:101AA00061726400596F752063616E20616C7761AB
:101AB000797320726573756D652074686520576948
:101AC0007A6172642066726F6D2043616C69627224
:101AD0006174696F6E202D3E2057697A6172642EA1
:101AE000004A6520746F20504C412066696C616D1E
:101AF000656E743F00497320697420504C41206624
:101B0000696C616D656E743F0050726F73696D2012
:101B1000766C6F7A746520504C412066696C616DFB
:101B2000656E7420646F2065787472756465727573
:101B30002C20706F20746520737469736B6E6574EC
:101B40006520746C616369746B6F2070726F207AAA
:101B500061766564656E692066696C616D656E7439
:101B6000752E00506C6561736520696E73657274C3
:101B700020504C412066696C616D656E7420746FF5
:101B8000207468652065787472756465722C2074A1
:101B900068656E207072657373206B6E6F6220745F
:101BA0006F206C6F61642069742E0050726F7369CE
:101BB0006D207A61766564746520504C41206669B9
:101BC0006C616D656E74206120706F207465206F8C
:101BD000626E6F7674652057697A617264612073F2
:101BE0007469736B6E7574696D20726573657420AA
:101BF000746C616369746B612E00506C6561736510
:101C0000206C6F616420504C412066696C616D6589
:101C10006E7420616E64207468656E2072657375E1
:101C20006D652057697A61726420627920726562FD
:101C30006F6F74696E6720746865207072696E7466
:101C400065722E00507265646568726976616D20F8
:101C5000747279736B752E2050726F73696D206387
:101C6000656B656A74652E0050726568656174699C
:101C70006E67206E6F7A7A6C652E20506C6561738A
:101C80006520776169742E004A652066696C616D14
:101C9000656E74207A61766564656E3F00497320D5
:101CA00066696C616D656E74206C6F616465643F1C
:101CB00000567365206A6520686F746F766F2E001A
:101CC000416C6C20697320646F6E652E20486170D2
:101CD0007079207072696E74696E67210050726F3E
:101CE00073696D206F6369737465746520686561DD
:101CF00074626564206120737469736B6E657465CA
:101D000020746C616369746B6F2E00506C65617335
:101D10006520636C65616E2068656174626564202E
:101D2000616E64207468656E2070726573732074D0
:101D30006865206B6E6F622E0050726F73696D2044
:101D40006E61686C65646E65746520646F206D619A
:101D50006E75616C752061206F707261767465209C
:101D600070726F626C656D2E20506F207465206FED
:101D7000626E6F7674652057697A61726461207251
:101D800065626F6F746F76616E696D207469736BD5
:101D900061726E792E00506C6561736520636865B1
:101DA000636B206F75722068616E64626F6F6B2069
:101DB000616E6420666978207468652070726F6255
:101DC0006C656D2E205468656E20726573756D6547
:101DD000207468652057697A617264206279207284
:101DE00065626F6F74696E672074686520707269D0
:101DF0006E7465722E0057697A61726400205761B3
:101E0000746368646F6720526573657400496E6619
:101E10006F726D61636500496E666F2073637265F2
:101E2000656E0043656B616E69206E61207A636840
:101E30006C61646E7574692050494E44410057616D
:101E40006974696E6720666F722050494E44412064
:101E500070726F626520636F6F6C696E67004365B7
:101E60006B616E69206E61207A63686C61646E7567
:101E7000746920747279736B79206120706F646C5F
:101E80006F7A6B792E0057616974696E6720666F8F
:101E900072206E6F7A7A6C6520616E642062656470
:101EA00020636F6F6C696E67004B616C2E207072DF
:101EB000766E6920767273747679004669727374EF
:101EC000206C617965722063616C2E0057616974C2
:101ED00020666F7220757365722E2E2E00506F75FE
:101EE0007A69746520626568656D207469736B75C5
:101EF000005573656420647572696E67207072693D
:101F00006E740042796C6F20767973756E757469A2
:101F10002066696C616D656E74752075737065738C
:101F20006E653F005761732066696C616D656E7404
:101F300020756E6C6F61642073756363657373667F
:101F4000756C3F0056796A6D6F75742066696C61B7
:101F50006D656E7400556E6C6F61642066696C61AE
:101F60006D656E74005679736F7576616D20666964
:101F70006C616D656E7400556E6C6F6164696E673F
:101F80002066696C616D656E7400556E6B6E6F775F
:101F90006E20636F6D6D616E643A2022004C616447
:101FA00069740054756E6500534420636172642047
:101FB0005B466C73684169725D00534420636172D3
:101FC0006420205B6E6F726D616C5D0053746162A2
:101FD0006C6520616D6269656E742074656D7065F5
:101FE0007261747572652032312D32364320697307
:101FF000206E65656465642061207269676964208C
:102000007374616E6420697320726571756972659D
:10201000642E005465706C6F746E69206B616C691E
:1020200062726163652073656C68616C6100546500
:102030006D70657261747572652063616C6962723E
:102040006174696F6E206661696C656400546570C7
:102050006C2E206B616C2E20205B7A61705D0054C9
:10206000656D702E2063616C2E2020205B6F6E5D8D
:10207000005465706C2E206B616C2E20205B76798D
:10208000705D0054656D702E2063616C2E20205BA6
:102090006F66665D005465706C6F746E69206B616D
:1020A0006C69627261636520646F6B6F6E63656EED
:1020B000612061206A65206E796E6920616B7469A8
:1020C000766E692E205465706C6F746E69206B613A
:1020D0006C696272616369206A65206D6F7A6E6FE8
:1020E000206465616B7469766F7661742076206D0B
:1020F000656E75204E6173746176656E692D3E5410
:1021000065706C2E206B616C2E0054656D7065726D
:1021100061747572652063616C6962726174696F64
:102120006E2069732066696E697368656420616EEC
:1021300064206163746976652E2054656D702E206D
:1021400063616C6962726174696F6E2063616E2095
:1021500062652064697361626C656420696E206DDC
:10216000656E752053657474696E67732D3E546592
:102170006D702E2063616C2E005465706C2E206B88
:10218000616C2E202020202020202020200054655B
:102190006D702E2063616C2E2020202020202020B6
:1021A0002020005465706C6F74610054656D70651B
:1021B00072617475726500506F64706F7261005364
:1021C0007570706F7274005A6173746176697420EF
:1021D0007469736B0053746F70207072696E740051
:1021E00053544F505045442E200053746570726113
:1021F000746520746F6F20686967683A20004A65CB
:10220000207469736B6F767920706C6174206E61D5
:1022100020686561746265643F004973207374656A
:10222000656C207368656574206F6E2068656174E5
:102230006265643F004D6F6420202020205B537452
:1022400065616C74685D004D6F6465202020205BC3
:10225000537465616C74685D004D6F6420202020AC
:1022600020205B4E6F726D616C5D004D6F64652068
:10227000202020205B4E6F726D616C5D0043656CA9
:102280006B6F767920636173203A00546F74616CD0
:10229000207072696E742074696D65203A00466919
:1022A0006C616D656E742063656C6B656D203A00C2
:1022B000546F74616C2066696C616D656E74203A50
:1022C00000436173207469736B75203A20200050BD
:1022D00072696E742074696D653A20200046696CDD
:1022E000616D656E74203A20200046696C616D65F1
:1022F0006E7420757365643A2020005374617469AC
:102300007374696B6120200053746174697374691C
:1023100063732020004368796261202D20446F732D
:102320006C6F206B207072657069737520737461B7
:102330007469636B652070616D6574692100457215
:10234000726F72202D20737461746963206D656DE6
:102350006F727920686173206265656E206F7665A3
:10236000727772697474656E00527963686C6F730A
:10237000740053706565640054726964656E692009
:10238000202020205B4361735D00536F72743A20FC
:1023900020202020205B54696D655D0054726964C3
:1023A000656E692020205B5A61646E655D00536F25
:1023B00072743A2020202020205B4E6F6E655D00F5
:1023C00054726964656E69205B416265636564612E
:1023D0005D00536F72743A20205B416C70686162DB
:1023E00065745D0054726964656E6920736F75620F
:1023F0006F727500536F7274696E672066696C65E1
:10240000730020536F66747761726520526573653F
:1024100074004C65686B65207A6B6F73656E693A02
:1024200000536C6967687420736B65773A00537466
:102430006176206B6F6E632E207370696E2E005371
:10244000686F7720656E642073746F7073005465D5
:102450007A6B65207A6B6F73656E693A00536576A7
:1024600065726520736B65773A004E6173746176AF
:102470007465207465706C6F74753A0053657420D0
:1024800074656D70657261747572653A004E617342
:10249000746176656E690053657474696E67730064
:1024A0004368796261207A61706F6A656E6900576E
:1024B0006972696E67206572726F720050726F6820
:1024C0006F7A656E6500537761707065640053655F
:1024D0006C662074657374207374617274202000BC
:1024E0005469736B6F76792076656E742E3A00505E
:1024F00072696E742066616E3A005A6B6F6E747208
:102500006F6C756A7465203A00506C656173652064
:10251000636865636B203A0053656C66207465736D
:1025200074204F4B004E657A61706F6A656E6F2044
:10253000202020004E6F7420636F6E6E656374659B
:1025400064004D6F746F72004865617465722F543A
:102550006865726D6973746F720053656E7A6F721D
:102560002066696C616D656E74753A0046696C61D0
:102570006D656E742073656E736F723A00546F638D
:1025800069207365005370696E6E696E67004E65F1
:10259000746F6369207365004E6F74207370696E89
:1025A0006E696E6700507265646E692F6C6576792E
:1025B0002076656E742E0046726F6E742F6C6566A1
:1025C000742066616E7300546573742076656E7452
:1025D000696C61746F72750046616E207465737406
:1025E0000053656C66746573742073656C68616C08
:1025F00020200053656C6674657374206661696C95
:1026000065642020004C6576792076656E742E3ADC
:102610000045787472756465722066616E3A004C8C
:102620006576792076656E74206E61207472797398
:1026300063653F004C65667420686F74656E642046
:1026400066616E3F0053656C6674657374206572D5
:10265000726F72202100456E6473746F70206E6F0C
:10266000742068697400456E6473746F70730045FC
:102670006E6473746F7000507265646E6920746963
:10268000736B6F76792076656E743F0046726F6E5D
:1026900074207072696E742066616E3F004B6F6EBD
:1026A00074726F6C61205A20617869732020004336
:1026B0006865636B696E67205A20617869732020B2
:1026C000004B6F6E74726F6C612059206178697372
:1026D000202000436865636B696E6720592061782C
:1026E00069732020004B6F6E74726F6C61205820EC
:1026F00061786973202000436865636B696E6720A9
:102700005820617869732020004B6F6E74726F6C73
:102710006120686F74656E64202000436865636B98
:10272000696E6720686F74656E642020004B6F6E61
:1027300074726F6C612073656E7A6F727500436896
:1027400065636B696E672073656E736F72732000CB
:102750004B6F6E74726F6C6120656E6473746F7012
:102760007300436865636B696E6720656E6473749C
:102770006F7073004B6F6E74726F6C612062656472
:10278000202020202000436865636B696E6720620B
:102790006564202020202000567365204F4B2020A8
:1027A00020202020202020202000416C6C20636FFE
:1027B000727265637420202020202000426564200E
:1027C0002F204865617465720044656C6B61206FF1
:1027D00073790041786973206C656E677468004F87
:1027E000736100417869730053656C667465737436
:1027F0002020202020202020200052506920706FAF
:102800007274202020205B7A61705D005250692034
:10281000706F727420202020205B6F6E5D0052501C
:102820006920706F7274202020205B7679705D00C3
:1028300052506920706F7274202020205B6F666692
:102840005D0057726974696E6720746F2066696CE9
:10285000653A2000766F6C756D652E696E6974201F
:102860006661696C6564002053697A653A20004BA3
:10287000617274612076796A6D757461004361726A
:10288000642072656D6F76656400534420707269D0
:102890006E74696E67206279746520006F70656E72
:1028A000206661696C65642C2046696C653A20007D
:1028B0006F70656E526F6F74206661696C6564003D
:1028C0004B6172746120766C6F7A656E6100436152
:1028D000726420696E736572746564005344206984
:1028E0006E6974206661696C0046696C6520736569
:1028F0006C65637465640046696C65206F70656E15
:1029000065643A20006572726F722077726974692B
:102910006E6720746F2066696C65005344206361A4
:102920007264206F6B0043616E6E6F7420656E740D
:102930006572207375626469723A20005072617624
:10294000793A0052696768743A004F626E6F766F29
:1029500076616E69207469736B7500526573756D6D
:10296000696E67207072696E74004F626E6F766573
:102970006E69207469736B7500526573756D696E4D
:1029800067207072696E7400506F6B7261636F764E
:10299000617400526573756D65207072696E7400A4
:1029A000526573656E643A20004F64737472616E91
:1029B0007465207469736B6F767920706C61742014
:1029C0007A20686561746265642070726F73696DE6
:1029D0002E00506C656173652072656D6F766520A1
:1029E000737465656C2073686565742066726F6DBD
:1029F00020686561746265642E00446574656B6F60
:102A000076616E207679706164656B2070726F7587
:102A100064752E4F626E6F766974207469736B3FB4
:102A200000426C61636B6F7574206F6363757272C3
:102A300065642E205265636F766572207072696ED0
:102A4000743F004F626E6F766F76616E69207469B5
:102A5000736B7520202020005265636F7665726964
:102A60006E67207072696E74202020200050726F93
:102A700073696D2076796A6D657465207572796306
:102A8000686C656E652066696C616D656E7400507A
:102A90006C656173652070756C6C206F7574206651
:102AA000696C616D656E7420696D6D6564696174D2
:102AB000656C7900686F77746F2E7072757361330F
:102AC000642E637A00686F77746F2E70727573610D
:102AD00033642E636F6D00666F72756D2E70727544
:102AE000736133642E637A00666F72756D2E707237
:102AF00075736133642E636F6D007072757361332B
:102B0000642E637A00707275736133642E636F6D27
:102B1000005469736B20706F7A6173746176656EAF
:102B2000005072696E742070617573656400546939
:102B3000736B20707265727573656E005072696E8A
:102B4000742061626F727465640050726F207679D0
:102B500073756E7574692066696C616D656E7475E8
:102B600020737469736B6E6574652070726F73691E
:102B70006D20746C616369746B6F00506C65617378
:102B80006520707265737320746865206B6E6F6268
:102B900020746F20756E6C6F61642066696C616D66
:102BA000656E740050726F206E6168726174692086
:102BB000747279736B79206120706F6B7261636FCF
:102BC00076616E6920737469736B6E6574652074C9
:102BD0006C616369746B6F2E005072657373206B48
:102BE0006E6F6220746F2070726568656174206E0C
:102BF0006F7A7A6C6520616E6420636F6E74696EA3
:102C000075652E006120737469736B6E6574652041
:102C1000746C616369746B6F00616E6420707265BF
:102C2000737320746865206B6E6F62005072656408
:102C3000656872656A746520747279736B752100BA
:102C40005072656865617420746865206E6F7A7A69
:102C50006C6521005072656465687265760050721B
:102C6000656865617400506F7765725570005072C9
:102C70006F73696D2063656B656A746500506C6580
:102C80006173652077616974004E656A6472697664
:102C900065207A61766564746520504C41206669D0
:102CA0006C616D656E742070726F73696D2E00506B
:102CB0006C65617365206C6F616420504C412066C7
:102CC000696C616D656E742066697273742E004A5A
:102CD0006520504C412066696C616D656E74207A88
:102CE00061766564656E3F00497320504C412066F3
:102CF000696C616D656E74206C6F616465643F0022
:102D00002020506C616E6E65724275666665724217
:102D1000797465733A2000556D6973746574652024
:102D200070726F73696D207469736B6F7679207040
:102D30006C6174206E612068656174626564005026
:102D40006C6561736520706C616365207374656583
:102D50006C207368656574206F6E206865617462AD
:102D600065642E004E6168726976616E6920504913
:102D70004E44410050494E44412048656174696E9B
:102D80006700504944206B616C2E202020202020B9
:102D90002020202020005049442063616C2E2020F8
:102DA00020202020202020202000504944206B613A
:102DB0006C2E20756B6F6E63656E61005049442008
:102DC00063616C2E2066696E6973686564005049A2
:102DD00044206B616C6962726163650050494420F4
:102DE00063616C6962726174696F6E00506F7A61C1
:102DF000737461766974207469736B0050617573C4
:102E000065207072696E7400556D697374657465C0
:102E1000206C69737420706170697275206E612016
:102E2000706F646C6F7A6B752061207564727A754F
:102E30006A7465206A656A20706F642074727973A1
:102E40006B6F7520626568656D206D6572656E6972
:102E5000207072766E696368203420626F64752E0C
:102E600020506F6B756420747279736B61207A6186
:102E700063687974692070617069722C207679704A
:102E80006E657465207469736B61726E752E005087
:102E90006C6163652061207368656574206F6620CE
:102EA000706170657220756E64657220746865204B
:102EB0006E6F7A7A6C6520647572696E67207468CB
:102EC000652063616C6962726174696F6E206F6600
:102ED000206669727374203420706F696E74732E6B
:102EE00020496620746865206E6F7A7A6C6520636D
:102EF00061746368657320746865207061706572C1
:102F00002C20706F776572206F666620746865206C
:102F10007072696E74657220696D6D656469617443
:102F2000656C792E006F6B004F6666004E6F206DEA
:102F30006F76652E005A61646E61205344206B6188
:102F4000727461004E6F20534420636172640054B8
:102F50007279736B61004E6F7A7A6C650046696CAA
:102F6000616D656E74206E657A61766564656E006C
:102F700046696C616D656E74206E6F74206C6F6154
:102F8000646564004261727661206E656E692063DB
:102F90006973746100436F6C6F72206E6F7420638D
:102FA0006F7272656374004E65004E6F0050726FF1
:102FB00073696D20616B7475616C697A756A74658B
:102FC0002E00506C65617365207570677261646571
:102FD0002E005679736C61206E6F76612076657273
:102FE0007A65206669726D776172653A004E657721
:102FF000206669726D776172652076657273696F9C
:103000006E20617661696C61626C653A00506F7325
:10301000756E6F7574205A004D6F7665205A00509A
:103020006F73756E6F75742059004D6F76652059FA
:1030300000506F73756E6F75742058004D6F766514
:10304000205800457874727564657200506F73750E
:103050006E6F7574206F7375004D6F7665206178A3
:103060006973004D65736820426564204C65766520
:103070006C696E67004E617065746900566F6C74A0
:1030800061676573005465706C6F74790054656D89
:10309000706572617475726573004B616C69627200
:1030A0006163650043616C6962726174696F6E008F
:1030B000537461762072656D656E750042656C743F
:1030C0002073746174757300207A203900206F6654
:1030D0002039004D6572696D207265666572656E96
:1030E000636E69207679736B75206B616C696272AF
:1030F00061636E69686F20626F6475004D6561730E
:103100007572696E67207265666572656E636520AB
:10311000686569676874206F662063616C696272B4
:103120006174696F6E20706F696E74004D657265B1
:103130006E65207A6B6F73656E693A004D656173D9
:103140007572656420736B65773A005B303B305D68
:1031500020706F696E74206F666673657400486CCA
:1031600061766E69206E616269646B61004D6169B0
:103170006E004D32323120496E76616C6964206593
:103180007874727564657220004D32313820496E52
:1031900076616C696420657874727564657220006C
:1031A0004D32303020496E76616C696420657874E8
:1031B000727564657220005265706F7274696E6713
:1031C00020656E6473746F7020737461747573001E
:1031D0004D313137204B616C2E207072766E692034
:1031E000767273747679004D313137204669727387
:1031F00074206C617965722063616C2E004D3130F2
:103200003920496E76616C696420657874727564E2
:10321000657220004D31303520496E76616C6964ED
:1032200020657874727564657220004D31303420E9
:10323000496E76616C696420657874727564657234
:10324000200055766F6C6E656E612072656D656EDF
:1032500069636B61004C6F6F73652070756C6C6592
:1032600079005A61766573742066696C616D656E6C
:1032700074004C6F61642066696C616D656E7400EA
:103280005A61766164656E692066696C616D656E10
:103290007475004C6F6164696E672066696C616D5E
:1032A000656E740043697374656E6920626172763D
:1032B00079004C6F6164696E6720636F6C6F720098
:1032C0004C6576793A004C6566743A0056796265C9
:1032D00072206A617A796B610053656C6563742052
:1032E0006C616E67756167650043657374696E61D3
:1032F00000456E676C697368004B494C4C45442E21
:103300002000496E76616C6964206578747275641A
:10331000657200566C6F7A74652066696C616D65C4
:103320006E7400496E736572742066696C616D65B8
:103330006E74005469736B2E2076656E743A00507B
:1033400072696E742046414E3A2000547279736B54
:103350002E2076656E743A004E6F7A7A6C65204640
:10336000414E3A00457874727564657220696E66E4
:103370006F004B616C696272756A69205A00436123
:103380006C6962726174696E67205A004B616C6986
:103390006272616365204F4B0043616C69627261C8
:1033A00074696F6E20646F6E65004B616C69627248
:1033B0006F766174205A0043616C69627261746552
:1033C000205A005A6168726976616E69204F4B2EEF
:1033D0000048656174696E6720646F6E652E005ADF
:1033E0006168726976616E690048656174696E67CB
:1033F0000043485942413A2046696C616D656E74DC
:103400002073656E7A6F72206E6572656167756A8A
:10341000652C207A6B6F6E74726F6C756A746520A0
:103420007A61706F6A656E692E004552524F523A4A
:103430002046696C616D656E742073656E736F7282
:10344000206973206E6F7420726573706F6E64698B
:103450006E672C20706C6561736520636865636BB3
:1034600020636F6E6E656374696F6E2E00462E204A
:103470006175746F7A61762E205B7A61705D0046AB
:103480002E206175746F6C6F616420205B6F6E5DC0
:1034900000462E206175746F7A61762E205B7679F6
:1034A000705D00462E206175746F6C6F6164205BE7
:1034B0006F66665D00462E206175746F7A61762EA8
:1034C000205B4E2F415D00462E206175746F6C6F3E
:1034D0006164205B4E2F415D0046696C2E20736550
:1034E0006E7A6F72205B7A61705D0046696C2E2087
:1034F00073656E736F7220205B6F6E5D0046696C42
:103500002E2073656E7A6F72205B7679705D00464F
:10351000696C2E2073656E736F72205B6F66665DDB
:103520000046696C2E2073656E7A6F72205B4E2F99
:10353000415D0046696C2E2073656E736F72205B6F
:103540004E2F415D002046726565204D656D6F729E
:10355000793A200050726F206B616C69627261630E
:103560006920707265736E65686F207265686F6D33
:103570006F76616E692062756465206E796E692070
:103580007370757374656E2073656C66746573749F
:103590002E0053656C66746573742077696C6C20BB
:1035A00062652072756E20746F2063616C6962724F
:1035B0006174652061636375726174652073656E03
:1035C000736F726C657373207265686F6D696E6777
:1035D0002E005469736B61726E61206E6562796C46
:1035E00061206A65737465207A6B616C6962726FC1
:1035F00076616E612E20506F73747570756A746594
:103600002070726F73696D20706F646C65206D61DE
:103610006E75616C752C206B617069746F6C6120C4
:103620005A6163696E616D652C206F647374617695
:10363000656320506F73747570206B616C69627282
:103640006163652E005072696E74657220686173E3
:10365000206E6F74206265656E2063616C696272B2
:1036600061746564207965742E20506C65617365A2
:1036700020666F6C6C6F7720746865206D616E7565
:10368000616C2C2063686170746572204669727386
:10369000742073746570732C2073656374696F6E26
:1036A0002043616C6962726174696F6E20666C6F31
:1036B000772E00507275746F6B00466C6F77004404
:1036C0006F6B6F6E636F76616E6920706F68796281
:1036D000750046696E697368696E67206D6F7665FF
:1036E0006D656E747300207A203400206F6620347C
:1036F00000486C6564616D206B616C696272616326
:103700006E6920626F6420706F646C6F7A6B7900F1
:10371000536561726368696E6720626564206361E6
:103720006C6962726174696F6E20706F696E74008B
:10373000446F6E6520736176696E672066696C659B
:103740002E00446F6E65207072696E74696E67201A
:1037500066696C6500536F75626F72206E656B6F82
:103760006D706C65746E692E20506F6B7261636F43
:103770007661743F0046696C6520696E636F6D7099
:103780006C6574652E20436F6E74696E756520617B
:103790006E797761793F004E656B74657265207351
:1037A0006F75626F7279206E656275646F752073D4
:1037B0006574726964656E792E204D6178696D61FA
:1037C0006C6E6920706F63657420736F75626F72C1
:1037D000752070726F20736574726964656E6920FC
:1037E0006A65203130302E00536F6D652066696C3C
:1037F00065732077696C6C206E6F7420626520732E
:103800006F727465642E204D61782E204E6F2E20CD
:103810006F662066696C657320696E203120666F63
:103820006C64657220666F7220736F7274696E6764
:10383000206973203130302E0053656E7A6F72200C
:1038400066696C616D656E74750046696C616D6565
:103850006E742073656E736F720046696C616D657E
:103860006E74207679746C6163656E20612073706C
:103870007261766E652062617276793F0046696C8E
:10388000616D656E7420657874727564696E672009
:1038900026207769746820636F7272656374206391
:1038A0006F6C6F723F0056796D656E697420666942
:1038B0006C616D656E74004368616E676520666952
:1038C0006C616D656E7400527963686C6F737420FF
:1038D00076656E742E0046616E20737065656400B7
:1038E0004B6F6E74722E2076656E742E5B7A6170EB
:1038F0005D0046616E7320636865636B2020205B0A
:103900006F6E5D004B6F6E74722E2076656E742E36
:103910005B7679705D0046616E7320636865636BEA
:1039200020205B6F66665D00656E717565696E6708
:1039300020220020205B6F666600452D636F727247
:10394000656374004578747275646572002045780B
:103950007465726E616C2052657365740050726993
:103960006E7465722073746F707065642064756521
:1039700020746F206572726F72732E2046697820F2
:10398000746865206572726F7220616E6420757351
:1039900065204D39393920746F20726573746172F6
:1039A000742E202854656D7065726174757265207F
:1039B00069732072657365742E2053657420697471
:1039C0002061667465722072657374617274696EC9
:1039D0006729004E6F204C696E65204E756D6265DB
:1039E00072207769746820636865636B73756D2CEA
:1039F000204C617374204C696E653A20004E6F2034
:103A0000436865636B73756D2077697468206C69B2
:103A10006E65206E756D6265722C204C617374202A
:103A20004C696E653A200020746F6F206C6F6E6772
:103A300020657874727573696F6E20707265766533
:103A40006E746564004C696E65204E756D626572BA
:103A5000206973206E6F74204C617374204C696E02
:103A600065204E756D6265722B312C204C6173742C
:103A7000204C696E653A20005072696E7465722040
:103A800068616C7465642E206B696C6C28292063F6
:103A9000616C6C6564210020636F6C6420657874D0
:103AA000727573696F6E2070726576656E74656489
:103AB00000636865636B73756D206D69736D617408
:103AC00063682C204C617374204C696E653A200049
:103AD00043485942413A004552524F523A00456ECE
:103AE000642066696C65206C697374006F70656E24
:103AF0000054524947474552454400656E6473740B
:103B00006F7073206869743A2000536C6565702E7D
:103B10002E2E005679706E6F7574206D6F746F72F3
:103B2000790044697361626C6520737465707065B7
:103B30007273004E65706C61746E6520686F646EA0
:103B40006F7479206E6173746176656E692E2042A0
:103B500075646520706F757A69746F207679636813
:103B60006F7A69205049442C204573746570732026
:103B70006174642E004F6C642073657474696E67A1
:103B80007320666F756E642E2044656661756C7473
:103B9000205049442C20457374657073206574630C
:103BA0002E2077696C6C206265207365742E00444A
:103BB0006174756D3A00446174653A00506F757AAE
:103BC0006520616B7475616C6E6900437572726516
:103BD0006E74001B5B324A504F5A4F523A1B5B3196
:103BE0003B3048437261736820646574656B63653C
:103BF0001B5B323B30486465616B7469766F76613C
:103C00006E612076651B5B333B3048537465616C95
:103C10007468206D6F6475001B5B324A5741524EC9
:103C2000494E473A1B5B313B304843726173682011
:103C3000646574656374696F6E1B5B323B30486406
:103C4000697361626C656420696E1B5B333B30484D
:103C5000537465616C7468206D6F6465001B5B3222
:103C60004A437261736820646574656B6365206D97
:103C7000757A651B5B313B3048627974207A6170DC
:103C80006E75746120706F757A6520761B5B323BB0
:103C900030484E6F726D616C206D6F6475001B5BF8
:103CA000324A437261736820646574656374696F36
:103CB0006E2063616E1B5B313B304862652074751A
:103CC000726E6564206F6E206F6E6C7920696E1B5A
:103CD0005B323B30484E6F726D616C206D6F646576
:103CE00000446574656B6F76616E206E6172617AF7
:103CF0002E00437261736820646574656374656443
:103D00002E004372617368206465742E20205B7AF4
:103D100061705D004372617368206465742E2020B9
:103D2000205B6F6E5D004372617368206465742E62
:103D300020205B7679705D00437261736820646552
:103D4000742E20205B6F66665D004372617368208D
:103D50006465742E20205B4E2F415D0020436F75FB
:103D60006E7420583A200056796D656E61206F6B35
:103D70003F004368616E67656420636F72726563BC
:103D8000746C793F005A63686C6164697400436FB6
:103D90006F6C646F776E0050726F2075737065730F
:103DA0006E6F75206B616C696272616369206F630D
:103DB0006973746574652070726F73696D207469BE
:103DC000736B6F766F7520747279736B752E2050DC
:103DD0006F74767264746520746C616369746B656A
:103DE0006D2E00506C6561736520636C65616E209B
:103DF000746865206E6F7A7A6C6520666F722063D6
:103E0000616C6962726174696F6E2E20436C6963C4
:103E10006B207768656E20646F6E652E00204C61A4
:103E2000737420557064617465643A200056796239
:103E3000657274652065787472756465723A0043C2
:103E4000686F6F73652065787472756465723A0087
:103E500050726F73696D206F74657672657465203A
:103E600069646C65722061206D616E75616C6E6550
:103E7000206F64737472616E74652066696C616D25
:103E8000656E742E00506C65617365206F70656E91
:103E90002069646C657220616E642072656D6F7656
:103EA000652066696C616D656E74206D616E75610B
:103EB0006C6C792E005A6D656E6120757370657338
:103EC0006E6121004368616E676520737563636589
:103ED000737321005661726F76616E693A20646F68
:103EE000736C6F206B65207A6D656E6520747970D8
:103EF00075207469736B61726E792E005761726EF2
:103F0000696E673A207072696E7465722074797098
:103F100065206368616E6765642E005661726F7616
:103F2000616E693A20646F736C6F206B65207A6DE7
:103F3000656E652074797075206D6F746865726246
:103F40006F617264752E005761726E696E673A20F8
:103F50006D6F74686572626F6172642074797065E8
:103F6000206368616E6765642E005661726F7661CA
:103F70006E693A20646F736C6F206B65207A6D6593
:103F80006E652074797075207469736B61726E79D7
:103F90002061206D6F74686572626F617264752E46
:103FA000005761726E696E673A20626F74682070A4
:103FB00072696E746572207479706520616E642018
:103FC0006D6F74686572626F617264207479706578
:103FD000206368616E6765642E005469736B207A94
:103FE000205344005072696E742066726F6D2053C6
:103FF00044005465706C6F742E206B616C69627242
:104000006163650054656D702E2063616C69627236
:104010006174696F6E004B616C696272756A6920C8
:104020005A0043616C6962726174696E67205A005C
:104030005A6B616C6962726F7661740043616C697E
:1040400062726174650052657365742058595A2014
:104050006B616C6962722E005265736574205859E9
:104060005A2063616C6962722E004B616C696272E6
:104070006163652058595A0043616C6962726174CA
:10408000652058595A002042726F776E206F757400
:1040900020526573657400426567696E2066696CBD
:1040A00065206C697374004B616C69627261636551
:1040B0002058595A206E65707265736E612E204CBF
:1040C00065767920707265646E6920626F64206D18
:1040D0006F63207670726564752E0058595A20639C
:1040E000616C6962726174696F6E20636F6D70726A
:1040F0006F6D697365642E204C6566742066726FFF
:104100006E742063616C6962726174696F6E207095
:104110006F696E74206E6F7420726561636861628E
:104120006C652E004B616C69627261636520585941
:104130005A206E65707265736E612E2050726564D0
:104140006E69206B616C69627261636E6920626F77
:104150006479206D6F63207670726564752E0058E7
:10416000595A2063616C6962726174696F6E206371
:104170006F6D70726F6D697365642E2046726F6E1D
:10418000742063616C6962726174696F6E20706F14
:10419000696E7473206E6F7420726561636861620A
:1041A0006C652E004B616C696272616365205859C1
:1041B0005A207620706F7261646B752E20582F59CB
:1041C000206F7379206D69726E65207A6B6F7365ED
:1041D0006E652E20446F627261207072616365218A
:1041E0000058595A2063616C6962726174696F6E1C
:1041F00020616C6C2072696768742E20582F5920DA
:10420000617865732061726520736C696768746C8E
:104210007920736B657765642E20476F6F64206A21
:104220006F6221004B616C6962726163652058594D
:104230005A207620706F7261646B752E205A6B6FF6
:1042400073656E692062756465206175746F6D6158
:104250007469636B79207679726F766E616E6F2008
:10426000707269207469736B752E0058595A2063F7
:10427000616C6962726174696F6E20616C6C20722E
:10428000696768742E20536B65772077696C6C20A2
:10429000626520636F727265637465642061757412
:1042A0006F6D61746963616C6C792E004B616C6930
:1042B00062726163652058595A2073656C68616C3D
:1042C000612E204B616C69627261636E6920626F5E
:1042D0006420706F646C6F7A6B79206E656E616CB0
:1042E000657A656E2E0058595A2063616C69627256
:1042F0006174696F6E206661696C65642E20426529
:10430000642063616C6962726174696F6E20706FA2
:10431000696E7420776173206E6F7420666F756E9E
:10432000642E004B616C6962726163652058595A52
:10433000207620706F7261646B752E20582F592083
:104340006F7379206A736F75206B6F6C6D652E20AB
:1043500047726174756C756A69210058595A2063F7
:10436000616C6962726174696F6E206F6B2E205888
:104370002F592061786573206172652070657270B5
:10438000656E646963756C61722E20436F6E67722F
:104390006174756C6174696F6E7321004B616C6937
:1043A00062726163652058595A2073656C68616C4C
:1043B000612E204E61686C65646E65746520646F63
:1043C000206D616E75616C752E0058595A206361BD
:1043D0006C6962726174696F6E206661696C656494
:1043E0002E20506C6561736520636F6E73756C74FD
:1043F00020746865206D616E75616C2E004B616C78
:104400006962726163652058595A2073656C6861EE
:104410006C612E204C65767920707265646E69201F
:10442000626F64206D6F63207670726564752E20F4
:1044300053726F766E656A7465207469736B61720E
:104440006E752E0058595A2063616C6962726174EE
:10445000696F6E206661696C65642E204C656674B8
:104460002066726F6E742063616C69627261746938
:104470006F6E20706F696E74206E6F74207265614C
:10448000636861626C652E004B616C696272616386
:10449000652058595A2073656C68616C612E2050F4
:1044A0007265646E69206B616C69627261636E69CA
:1044B00020626F6479206D6F632076707265647519
:1044C0002E2053726F766E656A7465207469736B03
:1044D00061726E752E0058595A2063616C69627260
:1044E0006174696F6E206661696C65642E20467226
:1044F0006F6E742063616C6962726174696F6E20A3
:10450000706F696E7473206E6F742072656163687A
:1045100061626C652E004B616C696272616365203B
:104520005A2073656C68616C612E2053656E736FE1
:1045300072206A65206F64706F6A656E79206E659F
:10454000626F20707265727573656E79206B61623F
:10455000656C2E2043656B616D206E612072657302
:1045600065742E00426564206C6576656C696E67C3
:10457000206661696C65642E2053656E736F7220CE
:10458000646973636F6E6E6563746564206F722017
:104590006361626C652062726F6B656E2E2057617D
:1045A0006974696E6720666F722072657365742E18
:1045B000004B616C696272616365205A2073656C9F
:1045C00068616C612E2053656E736F72206E657327
:1045D00065706E756C2E205A6E6563697374656EB6
:1045E0006120747279736B613F2043656B616D204C
:1045F0006E612072657365742E00426564206C657F
:1046000076656C696E67206661696C65642E2053FF
:10461000656E736F72206469646E7420747269676A
:104620006765722E20446562726973206F6E206E1A
:104630006F7A7A6C653F2057616974696E6720668E
:104640006F722072657365742E004B616C696272C3
:10465000616365205A2073656C68616C612E20531C
:10466000656E736F72207365706E756C2070726901
:104670006C6973207679736F6B6F2E2043656B6165
:104680006D206E612072657365742E004265642032
:104690006C6576656C696E67206661696C65642E11
:1046A0002053656E736F72207472696767657265F7
:1046B0006420746F6F20686967682E205761697481
:1046C000696E6720666F722072657365742E005A7A
:1046D0006168726976616E69207072657275736562
:1046E0006E6F2062657A7065636E6F73746E696D4C
:1046F000206361736F766163656D2E004865617438
:10470000696E672064697361626C656420627920F8
:104710007361666574792074696D65722E005A61E3
:1047200068726976616E6920626564004265642022
:1047300048656174696E6700426564204F4B2E00C6
:1047400042656420646F6E650056707261766F20FA
:104750005B756D5D00526967687420736964655BA1
:10476000756D5D00526573657400567A61647520DD
:10477000205B756D5D005265617220736964652010
:104780005B756D5D004B6F72656B636520706F6468
:104790006C6F7A6B7900426564206C6576656C207D
:1047A000636F727265637400566C65766F20205B70
:1047B000756D5D004C6566742073696465205B757A
:1047C0006D5D00567072656475205B756D5D0046A9
:1047D000726F6E7420736964655B756D5D00426510
:1047E00064004E656E69207A6B616C6962726F76E7
:1047F000616E6120767A64616C656E6F737420748B
:104800007279736B79206F64207469736B6F76654E
:1048100020706F646C6F7A6B792E20506F73747593
:1048200070756A74652070726F73696D20706F6443
:104830006C65206D616E75616C752C206B617069A3
:10484000746F6C61205A6163696E616D652C206FB5
:1048500064737461766563204E6173746176656E0E
:1048600069207072766E69207672737476792E0084
:1048700044697374616E6365206265747765656E03
:1048800020746970206F6620746865206E6F7A7A74
:104890006C6520616E6420746865206265642073B5
:1048A00075726661636520686173206E6F74206243
:1048B00065656E20736574207965742E20506C6573
:1048C00061736520666F6C6C6F7720746865206D0E
:1048D000616E75616C2C206368617074657220462E
:1048E000697273742073746570732C2073656374BC
:1048F000696F6E204669727374206C6179657220ED
:1049000063616C6962726174696F6E2E00446F6CD2
:104910006164656E69206F7379205A004C69766511
:104920002061646A757374205A0041646A757374F7
:10493000696E67205A004175746F20686F6D65005D
:104940004175746F5A61766564656E692066696C3D
:104950002E004175746F4C6F61642066696C616DE7
:10496000656E74004175746F6D617469636B652069
:104970007A61766164656E692066696C616D656EE9
:10498000747520646F737475706E6520706F757ABE
:104990006520707269207A61706E7574656D20662D
:1049A000696C616D656E742073656E7A6F72752EB9
:1049B0002E2E004175746F6C6F6164696E6720669E
:1049C000696C616D656E7420617661696C61626CA1
:1049D00065206F6E6C79207768656E2066696C6102
:1049E0006D656E742073656E736F722069732074C9
:1049F00075726E6564206F6E2E2E2E004175746F79
:104A00006D617469636B65207A61766164656E6956
:104A10002066696C616D656E747520616B74697672
:104A20006E692C20737469736B6E65746520746C89
:104A3000616369746B6F206120766C6F7A74652096
:104A400066696C616D656E742E2E2E004175746FF3
:104A50006C6F6164696E672066696C616D656E7408
:104A6000206973206163746976652C206A7573749C
:104A700020707265737320746865206B6E6F62209E
:104A8000616E6420696E736572742066696C616D15
:104A9000656E742E2E2E00207C20417574686F7216
:104AA0003A200056736500416C6C0041637469766E
:104AB000652045787472756465723A20001214009E
:104AC0001428143014381441144914661451147FF6
:104AD000147B1483148B14A4149314CF14B51425CD
:104AE00015ED14831563150716A61515176A160C10
:104AF00018C917B21859186519F918101AC419A449
:104B00001A611AF51AE11A631B091BFA1BAB1B6821
:104B10001C441C9D1C881CC01CB11C0B1DDD1C965C
:104B20001D391DF61DFD1D171E0D1E3E1E231E8662
:104B30001E5E1EBB1EA91ECC1EF11EDD1E241F0301
:104B40001F551F441F771F651F8A1FA31F9D1FA886
:104B50001FBA1FCC1F2E2013205F204D20832071F1
:104B6000200A2195208E217921AB21A321BF21B7D5
:104B700021D521C721E021EA211A22FE2147223531
:104B8000226B2259228B227D22B0229E22CF22C16B
:104B900022EA22DD220823FB223E23152372236909
:104BA000238A237823AE239C23D223C023F423E437
:104BB000230224212412243F242E245D244E247C0D
:104BC000246A2497248D24AF24A024C624BC24CE98
:104BD00024EF24E0240925FA24182534252525422C
:104BE0002548256C255A2585257D2598258E25B7B0
:104BF00025A525D825C725F325E125112605263429
:104C0000261F264526562666266F268C267726AF33
:104C1000269D26D326C126F726E5261B2709273EF3
:104C2000272D276227502786277427AA279827BC75
:104C300027D327C927E327DF27E8270C28FA2730BF
:104C4000281E284228542867287D286F288A289CF7
:104C500028B028CE28C028DC28E928F72805291BF9
:104C600029262943293C295B294A2979296A29933C
:104C7000298829A029D229A929212AFA29582A4391
:104C80002A8F2A6D2AC52AB42AE82AD72A052BFAA0
:104C90002A212B112B3C2B2E2B7B2B4A2BD92BA4DF
:104CA0002B192C042C402C2C2C5E2C542C662C7D87
:104CB0002C6E2CAF2C892CE82CCF2C002D3F2D17DF
:104CC0002D742D642D962D822DBC2DAA2DDC2DCE7C
:104CD0002DFC2DEC2D8F2E082E252F282F2C2F4428
:104CE0002F352F562F4F2F702F5D2F952F842FAAE2
:104CF0002FA72FC22FAD2FED2FD22F18300D302A16
:104D0000301F303C303130433059304C3063307CD0
:104D10003075308D308530A4309A30BC30B030CD15
:104D200030C830FC30D3303C312C314B316D315EEA
:104D30003172318931A031B731E731D031FD3114D1
:104D4000322B32553242327232623293328032B278
:104D500032A432C632C032D932CC32F132E932F921
:104D6000320233233313333F33333358334B3364FB
:104D7000337E33723399338C33B733AA33D133C391
:104D800033E933DF332A34F1337F346D34A3349184
:104D900034C734B534EB34D9340F35FD34333521D1
:104DA000354535923554354536D235BA36B336D2D7
:104DB00036BF36EB36E6361037F1363037423775C8
:104DC000375537E83797374A3839387D385A38B742
:104DD00038A638D638C738F238E0381639043928BA
:104DE0003933393A3944394D395D39D339FD3927A9
:104DF0003A453A783A973AB13AD73AD03ADE3AEC6D
:104E00003AF13AFB3A0A3B223B133B753B333BB644
:104E10003BAF3BCB3BBC3B183CD33B9E3C5D3CF2A9
:104E20003CE13C143D023D383D263D4A3D5C3D722F
:104E30003D673D8E3D853DE33D973D1D3E3F3E2D0B
:104E40003E853E503EC43EB53EFC3ED43E473F1BF1
:104E50003FA13F6A3FE43FDA3F0440F23F22401661
:104E6000403C4030405840464078406A4086409739
:104E700040DB40A7405F412441E141A4416B422413
:104E800042E642AC425B432343CA439C434444FD55
:104E900043D644884464451645FA45B1458C464A94
:104EA00046FC46CF462C471E4740473847554749A2
:104EB00047644776476A4796478547B447A847CF30
:104EC00047C347DE477048E2471C490D492A493627
:104ED0004952494049B34964494C4AFC49974AA759
:104EE0004AA34AAB4A457872656D65207370616E5E
:104EF000206F6620746865205A2076616C75657332
:104F00002100203C20005741524E494E473A20464E
:104F1000726F6E7420706F696E74206E6F74207281
:104F20006561636861626C652E205920636F6F72E2
:104F300064696E6174653A000049746572617469F0
:104F40006F6E3A200000004041000000400000E485
:104F5000420000004000005743000000400000579E
:104F6000430000C4420000E4420000C4420000408C
:104F7000410000C44200004041000042430000E400
:104F800042000042430000574300004243000040FB
:104F9000410000C04000005C430000C04000005CD5
:104FA00043000046430000404100004643062833CA
:104FB000D036C23E013F154132423B43F2443B45AD
:104FC000F24622473B48F2493B4AF05898590C5A5E
:104FD000085B0C5C086110679B6E2271077208FF0A
:104FE000095A0D000EFF19045E0820642B6D322F44
:104FF000FF5A00205A3A00590020593A0058002020
:10500000583A0024F4D43050C38E20C2A2401782F4
:105010008B7011127A910D816CD90AA861E108C7D1
:10502000586607615143061E4B5D05C145A7041A2A
:10503000411104093D9803713931034036DB0265A3
:10504000339102D4305402802E1D02632CEE017580
:105050002AC501B028A001102781018F2564012BEA
:10506000244B01E0223401AC211F018D200D018071
:105070001FFC00841EED00971DDF00B81CD200E667
:105080001BC600201BBC00641AB200B219A8000A9B
:1050900019A0006A189900D117910040178B00B52C
:1050A00016840031167E00B31579003A157300C7D7
:1050B000146F0058146A00EE13660088136300250D
:1050C000135E00C7125B006C12570015125400C12A
:1050D00011510070114F0021114B00D61049008D65
:1050E0001047004610440002104200C00F400080EC
:1050F0000F3E00420F3C00060F3B00CB0E380093E2
:105100000E37005C0E3500270E3400F30D3200C15F
:105110000D3100900D3000600D2E00320D2D000578
:105120000D2C00D90C2B00AE0C2900850C29005C3D
:105130000C2700350C27000E0C2600E80B2400C4B9
:105140000B2400A00B23007D0B23005A0B210039F8
:105150000B2100180B2000F80A1F00D90A1E00BB03
:105160000A1E009D0A1D00800A1D00630A1C0047DC
:105170000A1B002C0A1B00110A1A00F7091A00DD8D
:10518000091900C4091900AB091900920917007B1D
:10519000091800630917004C09160036091600208B
:1051A0000916000A091500F5081500E0081400CCDE
:1051B000081400B8081400A4081400900813007D17
:1051C0000812006B08130058081200460812003439
:1051D000081100230811001208110001081100F045
:1051E000071000E0071000D0071000C0071000B043
:1051F000070F00A107100091070E0083070F00742E
:10520000070F0065070E0057070E0049070E003B09
:10521000070D002E070E0020070D0013070D0006D6
:10522000070D00F9060C00ED060D00E0060C00D499
:10523000060C00C8060C00BC060C00B0060C00A44E
:10524000060B0099060C008D060B0082060B0077FA
:10525000060B006C060B0061060A0057060B004C9B
:10526000060A0042060A0038060A002E060A002432
:10527000060A001A060A001006090007060A00FDC1
:10528000050900F4050900EB050900E2050900D94C
:10529000050900D0050900C7050900BE050900B5CC
:1052A000050800AD050800A50509009C0508009447
:1052B0000508008C050800840508007C05080074BA
:1052C0000508006C050700650508005D0507005628
:1052D0000508004E0507004705070040050800388F
:1052E000050700310507002A050700230507001CF4
:1052F000050600160507000F050700080506000251
:10530000050700FB040600F5040700EE040600E8AC
:10531000040600E2040700DB040600D5040600CF03
:10532000040600C9040600C3040600BD040600B755
:10533000040600B1040500AC040600A6040600A0A3
:105340000405009B04060095040500900406008AED
:1053500004050085040500800406007A0405007534
:10536000040500700405006B040500660405006177
:105370000405005C04050057040500520405004DB7
:1053800004050048040500430405003E0404003AF7
:1053900004050035040500300404002C0405002732
:1053A000040400230405001E0404001A040400166B
:1053B000040500110404000D0404000904050004A0
:1053C00004040000040400FC030400F8030400F4D7
:1053D000030400F0030400EC030400E8030400E409
:1053E000030400E0030400DC030400D8030400D439
:1053F000030400D0030400CC030400C8030300C569
:1054000003030024F404D9201BC40C5C0E9804C4CC
:10541000095F0265077101F405F900FB04B3004858
:10542000048700C10369005803550003034500BE0B
:10543000023A008402310053022A002902250004A6
:10544000022000E4011C00C8011900AF01170098F8
:10545000011400840113007101100061011000515A
:10546000010E0043010D0036010B002B010B002043
:10547000010B00150109000C01090003010800FBE4
:10548000000800F3000800EB000700E4000600DE5F
:10549000000600D8000600D2000600CC000500C7B8
:1054A000000500C2000500BD000400B9000400B5FD
:1054B000000400B1000400AD000400A9000400A530
:1054C000000300A20003009F0004009B000300985B
:1054D0000003009500020093000300900003008D7C
:1054E0000002008B00030088000200860002008496
:1054F000000300810002007F0002007D0002007BAB
:1055000000020079000200770001007600020074BA
:1055100000020072000100710002006F0002006DC5
:105520000001006C0002006A0001006900020067CF
:1055300000010066000100650001006400020062D5
:1055400000010061000100600001005F0002005DD9
:105550000001005C0001005B0001005A00010059DD
:1055600000010058000100570001005600010055DD
:1055700000010054000100530000005300010052DC
:1055800000010051000100500001004F0001004ED9
:105590000000004E0001004D0001004C0001004BD6
:1055A0000000004B0001004A0001004900010048D2
:1055B00000000048000100470001004600000046CE
:1055C00000010045000000450001004400010043C7
:1055D00000000043000100420000004200010041C1
:1055E00000000041000100400001003F0000003FBA
:1055F0000001003E0000003E0001003D0000003DB3
:105600000001003C0000003C0000003C0001003BA9
:105610000000003B0001003A0000003A00010039A0
:105620000000003900010038000000380000003898
:10563000000100370000003700010036000000368E
:105640000000003600010035000000350000003584
:105650000001003400000034000000340001003379
:10566000000000330000003300010032000000326F
:105670000000003200010031000000310000003164
:105680000001003000000030000000300001002F59
:105690000000002F0000002F0000002F0001002E4E
:1056A0000000002E0000002E0001002D0000002D43
:1056B0000000002D0000002D0001002C0000002C37
:1056C0000000002C0000002C0001002B0000002B2B
:1056D0000000002B0000002B0001002A0000002A1F
:1056E0000000002A0000002A000100290000002913
:1056F0000000002900000029000000290001002806
:1057000000000028000000280000002800000028F9
:1057100000010027000000270000002700000027EC
:1057200000000027000100260000002600000026DF
:1057300000000026000000260001002500000025D2
:1057400000000025000000250000002500000025C5
:1057500000010024000000240000002400000024B8
:1057600000000024000100230000002300000023AB
:10577000000000230000002300000023000000239D
:105780000001002200000022000000220000002290
:105790000000002200000022000100210000002182
:1057A0000000002100000021000000210000002175
:1057B0000000002100010020000000200000002067
:1057C0000000002000000020000000200000002059
:1057D000000000200001001F0000001F0000001F4B
:1057E0000000001F0000001F0000001F0000001F3D
:1057F0000001001E0000001E0000001E0000001E30
:105800000000004572723A204D494E54454D5020DB
:105810004245440054656D7065726174757265200F
:105820006865617465642062656420737769746378
:10583000686564206F66662E204D494E54454D5074
:105840002074726967676572656420210045727211
:105850003A204D415854454D50204245440054652E
:105860006D706572617475726520686561746564D8
:1058700020626564207377697463686564206F666D
:10588000662E204D415854454D502074726967670B
:10589000657265642021004572723A204D494E546C
:1058A000454D50003A2045787472756465722073D6
:1058B00077697463686564206F66662E204D494E73
:1058C00054454D5020747269676765726564202184
:1058D000004572723A204D415854454D50003A20CF
:1058E000457874727564657220737769746368654E
:1058F00064206F66662E204D415854454D502074EB
:10590000726967676572656420210020484F5445BD
:105910004E4420544845524D414C2052554E41571B
:10592000415900204845415442454420544845527D
:105930004D414C2052554E41574159005448455213
:105940004D414C2052554E4157415900424544204B
:10595000544845524D414C2052554E4157415900F3
:1059600020544845524D414C2052554E41574159C3
:105970002028205052454845415420484F54454E18
:1059800044290020544845524D414C2052554E4127
:1059900057415920282050524548454154204845F8
:1059A0004154424544290050524548454154204500
:1059B00052524F52004245442050524548454154AE
:1059C000204552524F52004572723A205052494E71
:1059D000542046414E204552524F52005072696E3B
:1059E000742066616E207370656564206973206C35
:1059F0006F776572207468656E2065787065637472
:105A00006564004572723A20455854522E20464132
:105A10004E204552524F520045787472756465723B
:105A20002066616E207370656564206973206C6FF9
:105A3000776572207468656E20657870656374653B
:105A400064002F2F20616374696F6E3A7061757303
:105A50006500504944204175746F74756E65206609
:105A6000696E697368656421205075742074686577
:105A7000206C617374204B702C204B6920616E6424
:105A8000204B6420636F6E7374616E747320667252
:105A90006F6D2061626F766520696E746F20436F51
:105AA0006E66696775726174696F6E2E6800504921
:105AB00044204175746F74756E65206661696C650C
:105AC00064212074696D656F75740020403A00543C
:105AD0003A00423A00504944204175746F74756E23
